:020000040800F2
:100000005825002021020008290200082B020008C0
:100010002D0200082F020008310200080000000035
:100020000000000000000000000000003302000893
:1000300035020008000000003702000839020008FD
:100040003B0200083B0200083B02000800000000E1
:10005000000000003B0200083B0200083B020008D1
:100060003B020008000000003B0200083B020008C1
:100070003B020008000000003B0200083B020008B1
:100080003B0200083B020008000000003B020008A1
:100090003B0200080000000000000000000000001B
:1000A0000000000000000000000000003B0200080B
:1000B0003B0200083B0200083B0200083B0200082C
:1000C00000F002F800F09DF80AA090E8000C8244CD
:1000D0008344AAF10107DA4501D100F092F8AFF2AA
:1000E000090EBAE80F0013F0010F18BFFB1A43F016
:1000F00001031847EC7C00000C7D0000103A24BF7F
:1001000078C878C1FAD8520724BF30C830C144BF7C
:1001100004680C60704700000023002400250026BE
:10012000103A28BF78C1FBD8520728BF30C148BF5A
:100130000B6070476E2900F01B87702901F0658005
:10014000662907F02D81652907F02A81672907F0C4
:100150002781612907F0268103681B0A28BF41F027
:100160008001692900F08880642900F08580752964
:1001700000F082806F2900F0F287782901F0318049
:10018000E92900F08D87E42900F08A87F52900F03D
:100190008787EF2900F0EF87F82901F030800368A6
:1001A000DB0928BF41F08001632902F0E780732951
:1001B00002F0EC80E32902F0F780F32902F0FC80E2
:1001C000002070471FB59DE8030000F039FE01F0E4
:1001D000CDFC04000020002105F01EFF401C6060E3
:1001E0000020002105F02EFFE06001F06DFB00F023
:1001F0009BFA1FBD10B5002000F09CFC01F0CDFB68
:1002000010BD01F08EFC1146FFF7DCFF05F04AFE41
:1002100003F0FAF803B4FFF7EDFF03BC00F0DAFDDA
:100220000948804709480047FEE7FEE7FEE7FEE78A
:10023000FEE7FEE7FEE7FEE7FEE7FEE704480549C6
:10024000054A064B704700000D460008C100000833
:10025000581F002058250020582100205821002038
:100260000FB4044910B503AA029800F047FB10BC74
:100270005DF814FB141E00202DE9F0410646002411
:1002800010687529314616A510D000F036FE0028FA
:1002900002DA404213A507E031688A0701D512A5AA
:1002A00002E0490704D511A5012401E000F02EFE6B
:1002B00000210A2206F1240709E0B0FBF2FCB0FBA2
:1002C000F2F302FB1C00303078541846491C002819
:1002D000F3D123462A463046BDE8F04100F0B4BAD7
:1002E000000000002D0000002B0000002000000096
:1002F0002DE9F05F894604464FF0000ADFF874B13B
:10030000FB44C0F820A02046E1688847002874D04C
:10031000252806D0D4E901219047206A401C20629C
:10032000F1E700265F462046E16888472028054619
:1003300007DB312D05D2781910F8200C08B10643DF
:10034000F1E7B00701D526F00406C4F81CA0002789
:10035000C4F818A02A2D09D0284605F01CFD38B392
:1003600004EB8708303DC8F8185019E059F8041B11
:10037000204604EB87029161E1688847012F05461A
:1003800018D1E069002820DA26F020061DE0D8F810
:10039000180000EB800005EB40003038C8F818006A
:1003A0002046E1688847054605F0F5FC0028EED1B7
:1003B000012F0AD02E2D08D12046E16888477F1CE6
:1003C0000546022F46F02006C4DBA069002803DAA8
:1003D000404246F00106A061F00701D026F0100669
:1003E0006C2D0BD0682D09D04C2D39D06A2D35D00D
:1003F000742D35D07A2D33D016E038E0E1682F46E1
:1004000020468847B842054609D16C2F26D04FF4C4
:100410008060E168064320468847054604E06C2F6B
:100420001AD04FF4807006430DB3A5F1410019288E
:1004300002D8203546F400664A4629462046266002
:100440004E46FFF777FE80B101280BD0F61D26F04F
:10045000070000F1080956E74020E4E78020D8E7CC
:100460000020D6E706F104094DE7284652E7206A46
:10047000BDE8F09FA07100000FB400B589B00BA8D3
:100480006A46009003480A9900F076FA09B05DF8D0
:1004900014FB0000C01D00202DE9FF5F1D464FF03A
:1004A000FF3B91464FF000085F46D5E90146A96938
:1004B00001987F1C8847296A824688470028F6D120
:1004C000BAF1FF3F0CD0002E24F4C06419DD6006A1
:1004D00014D5BAF12B0F09D0BAF12D0F0ED103E0CC
:1004E000584604B0BDE8F09F44F48064A9690198BF
:1004F0007F1C8847761E8246002E02DDBAF1300F3F
:1005000003D0B9F1000F26D032E0A969761E019818
:100510007F1C44F400748847002E824605DDBAF142
:10052000780F06D0BAF1580F03D0B9F1000F10D0F0
:100530001EE0B9F1000F02D0B9F1100F18D1A9696E
:10054000761E01987F1C24F4007488478246102090
:1005500002E0082000E00A20814609E0A96908FBC2
:100560000908761E01987F1C44F40074884782466F
:10057000002E05DD4946504600F0F0F90028EDDA7E
:10058000E96901988847A00502D46FF00100A8E747
:10059000E00725D1600613D5600502D5C8F100003B
:1005A00000E0404629680A1D2A600968220501D535
:1005B000087015E0220701D5088011E008600FE0FF
:1005C0002868011D29600068210502D580F8008097
:1005D00006E0210702D5A0F8008001E0C0F8008005
:1005E00038467EE72DE9F041074615460E461020B5
:1005F00000F0B0F804000AD06760C4E9026500F0BA
:10060000A5F80168216004600020BDE8F0810120A8
:10061000FBE7032A40F2308010F0030C00F0158055
:1006200011F8013BBCF1020F624498BF11F801CBF5
:1006300000F8013B38BF11F8013BA2F1040298BF5A
:1006400000F801CB38BF00F8013B11F0030300F0C4
:10065000EF82083AC0F0088051F8043B083A51F89C
:1006600004CBA0E80810F5E7121D5CBF51F8043B6D
:1006700040F8043BAFF30080D20724BF11F8013BE0
:1006800011F801CB48BF11F8012B24BF00F8013B42
:1006900000F801CB48BF00F8012B7047431A28BF70
:1006A0009A427FF6B6AF032A1044114440F22680E6
:1006B00010F0030F1EBF11F8013D521E00F8013D5E
:1006C00010F0030F7FF4F6AF11F0030300F0F58292
:1006D000083AC0F00B8051F8043D083A51F804CDB7
:1006E00040F8043D40F804CDFFF7F3BF121D5CBF96
:1006F00051F8043D40F8043DAFF30080D20724BF19
:1007000011F8013D11F801CD48BF11F8012C24BFAB
:1007100000F8013D00F801CD48BF00F8012C7047FA
:10072000704770477047000070B5064C7C44064D1A
:100730007D4403E0206820448047241DAC42F9D169
:1007400070BD00001C780000287800000048704749
:10075000F41E002070B5064600F04EFB056806F159
:100760000B0020F00704B4429CBF002070BD2B4654
:100770006A68BAB11068A04210D304F10801884237
:100780003CBF5068586007D3516810194160116828
:10079000091B016058601460101D70BD134652683B
:1007A000002AE7D12146284600F036FB0028DED19A
:1007B00070BD70B50446051F00F01EFB0068002CDC
:1007C00014BF446870BD002C18BFAC423CBF20462B
:1007D0006468F8D301680A18AA4218BF456003D1BB
:1007E0002A6805461144016028684119A1421CBFCE
:1007F0006C6070BD6168696021680844286070BDE4
:100800000FB4014610B504AA039800F077F810BCA5
:100810005DF814FB7CB51D4616460C00009001D017
:100820002044401E074B7B442A46694601903046CF
:1008300000F0B7FB05461CB10020694600F0C4FB80
:1008400028467CBDA90700002DE9F0470D469946D2
:100850009246044600F124080168880604D5E06940
:1008600021F01001216000E00120A84201DD471BBA
:1008700000E00027A1697A1902EB0900081AA061BB
:100880002078C00602D4204600F010FB002608E0C5
:10089000D4E901211AF806009047206A401C761C12
:1008A00020624E45F4DB2078C0060AD5204600F0D1
:1008B000FDFA06E0D4E9012130209047206A401C6F
:1008C0002062381EA7F10107F4DC07E0D4E901211A
:1008D00018F805009047206A401C2062281EA5F1E8
:1008E0000105F3DC204600F0F7FA2078000602D577
:1008F0000220BDE8F0870120FBE70000074B70B540
:100900000D467B4400F04DFB0446284600F040F8BD
:1009100010B14FF0FF3070BD204670BDB7540000DD
:100920000FB400B58DB010A9099000910B904FF055
:10093000FF300A9000200C90064878440690064844
:1009400078446A4607900F9909A800F08BFD0DB016
:100950005DF814FB470B00005F0B00003A2800D243
:10096000303820F02002412A01D3A2F1370088421A
:1009700001D34FF0FF307047034B7B449361034B2F
:100980007B44D36100F06EBD275400000F0E0000C1
:10099000007B00F0800070472DE9F04104461646C8
:1009A0000D464769007B80072ED0384600F0FDF9E0
:1009B00050BB3EB3012E02D0022E25D104E02046CA
:1009C00000F066F805441DE0384600F0FCF9E168E7
:1009D000002841F01001E16005DA204600F0FCFE3D
:1009E0000120BDE8F081C9030BD56268E16A91423C
:1009F00000D81146A26911442269891A814200DD9A
:100A000008460544002D01DA0220EAE7E16A606841
:100A1000E268814206D29103E06203D522F40031FC
:100A200041F01002A6690027AE4213DCE16A814260
:100A300001D90B4600E0034603EB060C2369ACEB3F
:100A4000030CAC4506DD814201D98C4600E08446AA
:100A50009C4505D1A760276042F02000A5620DE00B
:100A6000AD1BE669AE1B8142A66000D90846C01ADC
:100A7000281A20605819606022F0200003490840BD
:100A8000E060002084F84870ABE70000BFCFD7FFDC
:100A900010B50146C268900703D0900607D5886A52
:100AA0000AE000F0B1F901210160881E10BD8B69D8
:100AB000486818440B69C01A91F848301BB191F886
:100AC0004910401A10BD1103FCD50028FADD401E64
:100AD00010BD2DE9F04704464FF000094FF0FF37F5
:100AE000C568D4E90486A80707D0204600F0A8FE10
:100AF000304600F045F9002802DA3846BDE8F087B4
:100B0000280502D54046FFF754FE4C21204600F050
:100B1000FEF8206D20F0010020654846EEE710B594
:100B2000002000F075FFFFF765FBBDE810400120D5
:100B300000F050B92DE9F0410646FFF707FE804668
:100B4000454613E016B1E068B0420ED12068286037
:100B5000D4E90101D8F8007088472046FFF729FE44
:100B6000D8F80000B842EBD100E025462C68002CF4
:100B7000E8D1BDE8F08140EA0103024630B59B07A9
:100B800010D14FF0013400E008C208C91D1B9D437D
:100B900015EAC41FF8D013F0FF0102F8011B0DD0B5
:100BA0001B0AF8E711F8013B002B02F8013B05D0C6
:100BB00011F8013B002B02F8013BF3D130BD0022BC
:100BC000CBB210F8011B994200D1421E0029F8D186
:100BD0001046704710B5431C02E010F8011B71B1BC
:100BE0008107FAD14FF0013202C88C1A8C4314EA03
:100BF000C211F9D0C01A0A0603D0C01E10BDC01A17
:100C000010BD0A0401D0801E10BD0902FCD0401E98
:100C100010BD520000F007BF421E12F8013F002B2A
:100C2000FBD111F8013B002B02F8013BF9D17047D1
:100C300010B5203AC0F00B80B1E81850203AA0E877
:100C40001850B1E81850A0E81850BFF4F5AF5FEAAB
:100C5000027C24BFB1E81850A0E8185044BF18C95E
:100C600018C0BDE810405FEA827C24BF51F8043B05
:100C700040F8043B08BF7047D20728BF31F8023B59
:100C800048BF11F8012B28BF20F8023B48BF00F8ED
:100C9000012B7047431A28BF9A427FF6C9AF104410
:100CA00010F0030F11441EBF11F8013D521E00F851
:100CB000013D10F0030F7FF4F6AF103AC0F00A8048
:100CC00010B531E91850103A20E91850BFF4F9AFC7
:100CD000BDE81040530724BF31E9081020E908108F
:100CE00044BF51F8043D40F8043D12F0030F08BF23
:100CF0007047D20728BF31F8023D48BF11F8012CD8
:100D000028BF20F8023D48BF00F8012C70474FF083
:100D1000000200B5134694469646203922BFA0E84B
:100D20000C50A0E80C50B1F12001BFF4F7AF090757
:100D300028BFA0E80C5048BF0CC05DF804EB890048
:100D400028BF40F8042B08BF704748BF20F8022B8B
:100D500011F0804F18BF00F8012B704700DE10B56E
:100D600004F035FFBDE8104004F0B4BE0EB5CDE987
:100D70000001FFF72FFF029069460120ABBE0EBDB8
:100D800008B5694600900220ABBE08BD1FB58DE8CE
:100D9000070069460520ABBE04B010BD1FB58DE845
:100DA0000F0069460620ABBEF6E708B5694600901D
:100DB0000920ABBE08BD1CB5CDE9000169460A207B
:100DC000ABBE1CBD704708B5694600900C20ABBE99
:100DD00008BD000001491820ABBEFEE72600020056
:100DE00000487047BC1E002010B500F0BFFE001D7B
:100DF00010BD00BF2552000000487047C41E0020EF
:100E000000487047F01E002000487047BC1E0020BC
:100E1000704770477047704738B504460A4600204F
:100E20006946AFF30080002808BF38BD024600992C
:100E3000204600F0A3FE012038BD012002F011BBC6
:100E4000F8B5AFF30080054600200C46102000BF27
:100E50000646A819A0420DD9324669460020AFF3D4
:100E60000080070008BF02F0FCFA0098A04218BFFB
:100E70000546C419FFF7C0FF05600746F01D20F0C6
:100E800007004619284600F00AF8B44208BFF8BD2A
:100E9000A21B31463868BDE8F84000F06FBE002163
:100EA0000160C0E9011070471020704770B504461A
:100EB00085690068C10601D5302600E02026C007FC
:100EC00007D070BDD4E9012130469047206A401C0C
:100ED00020626D1EF6D570BD70B504468569007838
:100EE000C00707D170BDD4E9012120209047206AB6
:100EF000401C20626D1EF6D570BD09684A0501D5FB
:100F000040B27047C905FCD500B2704709684A0570
:100F100001D5C0B27047C905FCD580B2704770B525
:100F20000C460546012A05D02878800600D5EA69D6
:100F3000002302E0012305E05B1C934202D2E05C47
:100F40000028F9D1A869E618C01AA861286A1844CF
:100F500028622846FFF7AAFF04E0D5E9012114F82A
:100F6000010B9047B442F8D32846FFF7B5FF70BD98
:100F700011680268006A530501D508700AE0D305BC
:100F800001D5088006E0130603D5C217C1E90002A7
:100F900000E008600120704701694A1C026108787E
:100FA000704700B58FB0CDE90131002105910549A9
:100FB0007944CDE9031011466846FFF799F90FB05F
:100FC00000BD0000E5FFFFFF0A6802F8010B0A60A0
:100FD0007047D1E900239A4202D2531C0B60107073
:100FE000704700002DE9FF5F15468A460446DFF88A
:100FF000AC80F8440027D8E900103E46CDE9001047
:1010000010E03AF816106A4602A802F0DDF9411C19
:1010100007D02178890603D5E269391891420DD8A5
:101020000744761C2078800602D5E069B84205DDC9
:10103000AE42E6DB3AF816000028E2D1A069C01BF8
:10104000A0612046FFF732FFD8E90010CDE900107B
:10105000002017E03AF818106A4602A802F0B4F926
:10106000B0F1FF3F81460BD000250DF1080B05E0E4
:10107000D4E901211BF8050090476D1C4D45F7D3BD
:1010800008F10100B0428046E4DB206A3844206267
:101090002046FFF721FFBDE8FF9F00002A67000000
:1010A0002DE9F0418046D21D22F007020025D2E949
:1010B0000002F52915A614D0011E72F1000106DA0E
:1010C0000023D0EB030063EB020211A608E0D8F87E
:1010D00000108B0701D50FA602E0490701D50EA627
:1010E00001251146002408F1240704E000F060FD0A
:1010F00030323A55641C50EA0102F7D12B46324691
:1011000021464046BDE8F041FFF79EBB00000000CD
:101110002D0000002B0000002000000030B4002152
:1011200000F1240408E002F00705D208303542EA55
:101130004372DB086554491C52EA0305F3D1046885
:10114000002310A2250707D5A40600D421B1C46945
:1011500001230DA2641EC46130BCFFF775BB10B53E
:10116000044621461068FFF7D1FE02462046BDE83E
:1011700010400023D2E7D21D22F00701D1E900235D
:10118000CCE700000000000030000000F0B40D4685
:101190000188090502D5214C7C4402E01F4C7C44A7
:1011A0000E34002100F1240608E002F00F071209B6
:1011B000E75D42EA03721B097754491C52EA0307B0
:1011C000F3D102780023120704D5702D06D009B19F
:1011D000022311342246F0BCFFF736BB0123103442
:1011E000F8E770B504460D4621461068FFF78EFEFD
:1011F000024629462046BDE870400023C6E7D21DBE
:1012000022F00703D3E90023C0E70368126843F024
:10121000200303600823C3610023B7E78C65000047
:101220002DE9FF4F1C4691464FF0FF3581B000215C
:101230008A468846D4E90167A16902986D1C8847EF
:10124000216A834688470028F6D1BBF1FF3F0CD0C6
:10125000002F26F4C0661ADD700615D5BBF12B0FE2
:101260000AD0BBF12D0F0FD104E04FF0FF3005B0D5
:10127000BDE8F08F46F48066A16902986D1C88472E
:101280007F1E8346002F02DDBBF1300F03D0B9F182
:10129000000F2AD025E0A1696D1C02987F1E46F43C
:1012A00000768847002F834605DDBBF1780F06D016
:1012B000BBF1580F03D0B9F1000F10D011E0B9F114
:1012C000000F02D0B9F1100F0BD1A1696D1C02986B
:1012D0007F1E26F4007688478346102000E0082011
:1012E00081464FEAE970009017E00A20F8E743468C
:1012F000AAFB0928DDF800C07F1E03FB098046F425
:10130000007605F101050AFB0C0112EB0B0A0298AD
:1013100041EBEB78A16988478346002F06DD4946FB
:101320005846FFF71BFB5FEA000BE0D5E169029826
:101330008847B00502D46FF0010098E7F00718D194
:10134000700610D55146700505D50023D1EB030179
:1013500063EB080200E042462068031D236000683A
:10136000C0E9001205E02068011D21600068C0E9A5
:1013700000A828467BE72DE9FF5F4FF0000899465B
:10138000144646469169D2E901A7DDF838B00198C4
:101390008847054659EA0B0005D009E0A169019884
:1013A000761C88470546216A284688470028F5D1DB
:1013B000681C03D05FEACA7005D015E04FF0FF301B
:1013C00004B0BDE8F09F2068011D2160D0F80080C6
:1013D0000AE05FEACA7001D108F8015BA169761CD6
:1013E00001987F1E88470546002F1ADD681C18D01B
:1013F000B9F1000F0DD0E81705EBD060421120F0D5
:101400001F0059F822102A1A012090400142E0D111
:1014100007E0BBF1000FDCD12846216A884700288D
:10142000D7D0E16901988847BBF1000F07D1002EA2
:1014300005DD5FEACA7002D1002188F80010A068BB
:10144000B84203DDBBF1000F03D017B16FF001000C
:10145000B6E73046B4E70000026811441378016033
:1014600018467047D160054979445161044979446F
:10147000116200211161114600F0A2BFEDFFFFFFD4
:10148000C9070000426842B1016811F8013B23B16D
:10149000521EC0E90012184670470121C160881E23
:1014A000704742685AB1C368016843B983688B4288
:1014B00005D0491E521CC0E90012002070474FF0B1
:1014C000FF3070472DE9FF4F4FF000089A46144651
:1014D000C146464683B0D2E901B7CDF80080CDF8C9
:1014E0000480916904988847109905465AEA0100DA
:1014F00005D009E0A1690498761C88470546216A51
:10150000284688470028F5D1681C03D05FEACB70D5
:1015100005D02AE04FF0FF3007B0BDE8F08F20681B
:10152000011D2160D0F800801FE002A86A46E9B2E0
:1015300001F02CFF411C07D0801C09D04FF000099E
:101540005FEACB7007D00AE0E169049888473EE083
:101550004FF0010904E0BDF8081028F8021B7F1EB7
:10156000A1690498761C88470546002F1ADD681C7F
:1015700018D0BAF1000F0DD0E81705EBD06042117A
:1015800020F01F005AF822102A1A01209040014230
:10159000CBD107E010980028C7D12846216A884798
:1015A0000028C2D0E16904988847B9F1000F0ED134
:1015B000109830B9002E04DD5FEACB7001D1A8F895
:1015C0000000A068B84202DD109818B117B16FF0A2
:1015D0000100A1E730469FE72DE9FF4F4FF00008DB
:1015E0009B461446454683B0D2E90196CDF800806B
:1015F000CDF804809169DDF848A004988847074633
:101600005BEA0A0005D009E0A16904986D1C8847CF
:101610000746216A384688470028F5D1781C03D050
:101620005FEAC97005D01BE04FF0FF3007B0BDE89E
:10163000F08F2068011D2160D0F8008010E05FEA83
:10164000C97007D16A464046B9B201F0BDFE411CDF
:1016500031D08044A1696D1C0498761E88470746E6
:10166000002E14DD781C12D0BBF1000007D03B46E1
:10167000DDE9101201F0DAFA0028E0D107E0BAF152
:10168000000FDCD13846216A88470028D7D0E169AD
:1016900004988847BAF1000F06D1002D04DD5FEAF7
:1016A000C97001D188F80000A068B04203DDBAF12A
:1016B000000F03D016B16FF00100B7E72846B5E779
:1016C0002DE9FF5F9B46144600273D469169D2E90C
:1016D0000196DDF840A00198884780465BEA0A0041
:1016E00005D009E0A16901986D1C88478046216AF0
:1016F000404688470028F5D1B8F1FF3F03D05FEAA4
:10170000C97005D014E04FF0FF3004B0BDE8F09F81
:101710002068011D216007680AE05FEAC97001D1F5
:1017200027F8028BA1696D1C0198761E88478046B8
:10173000002E15DDB8F1FF3F12D0BBF1000007D03D
:101740004346DDE90E1201F071FA0028E5D107E009
:10175000BAF1000FE1D14046216A88470028DCD069
:10176000E16901988847BAF1000F05D1002D03DD2A
:101770005FEAC97000D13880A068B04203DDBAF1D9
:10178000000F03D016B16FF00100BEE72846BCE79A
:10179000704710B54FF0FF34C1688A020FD5036B54
:1017A00042689A420BD1014690F82520104601F07C
:1017B00077FC401C01D1204610BD002010BD11F067
:1017C000C00FF8D1026941689142F4D90268491EFC
:1017D000521CC0E90021F0E7C16821F4001141F07A
:1017E0008001C16000218160016070472DE9F047F0
:1017F000814614460E464FF0FF383248D568576987
:10180000054209D03846A169FFF7D5FA002811DB57
:101810002C48C0430540E5602B46324649463846D1
:10182000FFF7B4FAA16920F00042B21A114400286F
:10183000A16103D02046FFF7CFFF4046BDE8F08707
:1018400070B504460569C06A6168884200D80846D8
:10185000E16821F42011E160C90312D5A84208D043
:101860002246411B2846FFF7C1FF10B14FF0FF3061
:1018700070BD0020E562C4E90150E06820F48030CA
:10188000E060002070BD10B50446C06820F0200064
:10189000E060A16AA06988420DD02046FFF7D0FF22
:1018A000E06820F4405040F01000E060A06AA061C1
:1018B0002069E062606044F24001E0688843E060D3
:1018C00010BD00001000020010B542485421FFF77F
:1018D0001EFA41485421FFF71AFA40485421FFF7F5
:1018E00016FA3F493B483C4A3F4B08603D490A6075
:1018F0003A491960531C0365481C106501200865AE
:101900003B48344A39A1784401F0EEFB20B938480D
:1019100078440A3801F09EFD37482F4A35A17844B3
:1019200001F0E2FB20B9344878440A3801F092FD16
:1019300032482A4A2FA1784401F0D6FB20B92F481B
:1019400078440A3801F086FD40232248DC0000215B
:10195000224601F082FB20B125487844543801F03A
:1019600079FD1D4822464023002101F076FB20B17D
:1019700021487844543801F06DFD18482246102360
:10198000002101F06AFB002806D01C487844BDE81D
:101990001040563801F05EBD10BD104870B5006DA6
:1019A00020F001040B48FFF794F80B48FFF791F87B
:1019B0000A48FFF78EF809E0206D20F00105204667
:1019C000FFF787F82046FEF7F4FE2C46002CF3D1F3
:1019D00070BD0000C01D0020141E0020681E0020E5
:1019E0002C00002030000020340000207200000095
:1019F0000A5E000077000000F65D0000E25D000076
:101A00000A460146014801F032BC00001C1F0020BC
:101A100010B501F007FDBDE8104001F0FEBC01B5B6
:101A2000FEF7F7FD01BD01B5FEF738FE01BD000070
:101A30004FF0013C50F8042B51F8043B9A4221D15D
:101A4000A2EB0C03934313EACC1317D150F8042BE9
:101A500051F8043B9A4215D1A2EB0C03934313EACD
:101A6000CC130BD150F8042B51F8043B9A4209D106
:101A7000A2EB0C03934313EACC13DBD04FF000002E
:101A8000704700BFD01A01BAB1FA81F101F0180114
:101A900022FA01F0CB40C1F12001DBB2C0B2C01A82
:101AA0002CFA01F3D11A914311EAC311E6D1704720
:101AB000AFF3008010B500F00EF8016919B10022F3
:101AC0000261884701E080688047FFF728F800003E
:101AD00010B5FFF724F870B500F04CF8046805461F
:101AE000A4B92020FEF736FE040011D009490020D9
:101AF0002C60C4E900010849A16020732061606185
:101B00000649A06109B101F0C4FCE061204670BD46
:101B1000FFF705F800000000D11A000800000000DF
:101B200070477546FFF75CF9AE46050069465346B7
:101B300020F00700854618B020B5FEF77FFBBDE812
:101B400020404FF000064FF000074FF000084FF024
:101B5000000B21F00701AC46ACE8C009ACE8C009B5
:101B6000ACE8C009ACE8C0098D4670470048704732
:101B7000DC1E002000487047F81E00200346406825
:101B80008C46002818BF88423CBF03464068F8D303
:101B900018681844884207D00CF1030020F00700B1
:101BA000001D411A521A0146081D0A60FEF701BEC7
:101BB00030B5B0F10A024FEA900E71F100034EEA1F
:101BC000817EB0EB0E0061EB91014FEA101E4EEAF0
:101BD000017E10EB0E0041EB11114FEA102E4EEA80
:101BE000016E10EB0E0041EB11214FEA104E4EEA50
:101BF000014E10EB0E0041EB1141401841F1000184
:101C00004FEAD00040EA41704FEAD10110EB800565
:101C10004FEA810444EA907444EB01046D1944EBEB
:101C20000404521BA3414FF0000348BF0A3200D501
:101C300030BD401C41F1000130BD10B50446FFF736
:101C4000D3F80068005D00F0010010BD70472DE979
:101C5000FF4F0C461E464FF0FF378BB0D2E9000114
:101C6000DDF860800A908A46C1F30A5505B93D4601
:101C7000002108464FF00000BAF1000F00F44000C8
:101C800005DA00EB80004FF4400101EA50004FEA12
:101C90009059B9F1010F00DDB9460A9850EA4A009F
:101CA0000ED044F61050A5F2FF3545432F14B8F17D
:101CB000000F1ED07542291E1EDDC9F100021CE076
:101CC000B8F1010F4FF0000001D0302103E0F243E2
:101CD00005E02154401CB042FBDB304600220021CD
:101CE00021540B99C1F80880C1E900200FB0BDE86C
:101CF000F08FBD1B6D1CDEE74A4600DA694206A87C
:101D000001F026FC06AB93E8070003AB83E807006D
:101D100050460A9901F0F3FF8DE80700A0F5005046
:101D20001F3800900398002D0ADD42F21F014A4639
:101D30000844002303A90390684602F09FFA09E0D3
:101D4000A0F500504A461F38002303A903906846B7
:101D500002F0BEFA8DE807000004000C03D04FF03B
:101D6000FF30410800E01046B8F1000F03D0002218
:101D7000009215461EE0751E05D4FFF719FF30329C
:101D800062556D1EF9D5B3460122084302D00022E8
:101D90007F1C04E02078302801D100227F1E002A19
:101DA000099784D01DE0112D07DAFFF701FF3032CB
:101DB00062556D1C50EA0102F5D1084302D000982B
:101DC000C8B10EE00021681E05E0235C625C63542C
:101DD0002254401E491C8142F7DBAB46A81B401E23
:101DE0000990002004F80B000B98099AC0F80880AD
:101DF000C0E9002B7AE711264FF0000857E72DE9DC
:101E0000F04F88460446D21D22F0070191B0D1E977
:101E10000001CDE90A0103F0C6FE02460B98C00F8F
:101E200001D02D2007E02068810701D52B2002E09A
:101E3000202101EAC000032A099001D0072A05DB0E
:101E400003464146204601F043FB0BE12078800623
:101E500001D5E06900E00620B8F1650F814606D0A3
:101E6000B8F1660F18D0B8F1670F70D131E00020DB
:101E7000B9F1110F009001DB112301E009F1010319
:101E80000AAA01A90CA8FFF7E2FEDDE90C70002602
:101E900009F10105834647E001204B4600904FF0D1
:101EA00000470AAA01A90CA8FFF7D1FEDDE90DB091
:101EB0000C995D46002610B909F101000D18B9EB27
:101EC000050003D4C0F1FF3609F10105A5EB0900B7
:101ED0002BE0B9F1010F01DA4FF001090020B9F14F
:101EE000110F0090484601DD112300E003460AAAC5
:101EF00001A90CA8FFF7ABFEDDE90C704D460026EA
:101F00008346207800070AD4AB4500DA5D4601A875
:101F1000012D04DD411911F8011C302907D04F456E
:101F200002DA17F1040F04DA012082460FE06D1E79
:101F3000EEE7002F02DCED1B3E4403E0781CA842D4
:101F400000DD7D1CB81B00F1010A4FF0004720782E
:101F5000000703D4AA4501DB4FF0FF3A0021B7F197
:101F6000004F0DF143088DF8431024D002202B239D
:101F7000002F01DA7F422D230A21021EA0F1010069
:101F800000DC5FB197FBF1FC97FBF1F201FB1C7CDD
:101F900017460CF1300C08F801CDEEE7A8F101006E
:101FA00003702188090501D5452100E06521A0F1D4
:101FB000010800F8011C09980FA9A1EB0807FF1DF3
:101FC00000B10120411901EBEA70A1693844081AF7
:101FD000401EA0612078C00602D42046FEF766FFAE
:101FE000099828B1D4E901219047206A401C206259
:101FF0002078C00622D52046FEF758FF1EE0002EAE
:1020000004DBB34502DD01A8805D00E03020D4E9A7
:1020100001219047206A401C2062761CAAF1010031
:102020005FEA000A0AD1FFF7A1FDC0680168405CC1
:10203000D4E901219047206A401C2062281EA5F1A6
:102040000105DCDC07E0D4E9012118F8010B904719
:10205000206A401C2062381EA7F10107F3DC2046ED
:10206000FEF73AFF032011B041E600002DE9F04FE2
:1020700004460D46D21D22F0070089B0D0E9009732
:102080004846394603F08FFD0246F80F01D02D2354
:1020900007E02068810701D52B2302E0202101EA17
:1020A000C0038DF820300BB1012000E00020032A8E
:1020B000824601D0072A04DB2946204601F008FAAF
:1020C0003FE12078800601D40D2500E0E569C7F3E3
:1020D0000A560D2D49DA00214FEA175B08464FF0EA
:1020E0000000002F00F4400007DA00EB80004FF4FE
:1020F000400100EBD07001EA60008115012901DD8B
:102100004FF0FF3100224FEA850CBCF1180F06D3C7
:102110001346ACF118004FF08052C24003E04FF478
:10212000801323FA0CF30CF10C0CBCF1200F04D338
:10213000ACF1200C09FA0CF001E007FA0CF00029D0
:102140004FF0004801DD18B90FE00ED140450CD327
:1021500019EB02095F4121B9404502D19F4329EAA9
:102160000209BBEB175F00D0761C2088000502D562
:102170007B48784402E07A487844193808AA30232A
:1021800002F80A30037C0AF10101002E0AF1020A6A
:1021900053546A4602DC4FF0300101E04FF0310148
:1021A0004FF001088DF8001002D0A6F2FF3603E0D0
:1021B00059EA470100D06B4E002D02DC2178090757
:1021C00004D54FF002082E218DF80110C4460021DD
:1021D0000BE0C7F303433F01C35C491C6D1E02F8CB
:1021E0000830052908F1010801DA002DF1DC002191
:1021F0000CE000EB1973491C1B786D1E082902F8CE
:1022000008304FEA091908F1010801DA002DF0DC65
:1022100021688B0602D516E0A8F10108E04505DD2E
:1022200002EB080313F8013C302BF5D0B8F1000F96
:1022300009DD02EB080313F8013C2E2B03D109073B
:1022400001D4A8F10108002D05DD3E2102F8081097
:102250006D1E08F10108407C002E02F8080008F10C
:10226000010804DA2D20764202F8080002E02B2053
:1022700002F808000A214FF47A70864208F101083A
:102280000BDB96FBF0F3303302F8083096FBF0F3EB
:1022900008F1010800FB136601E0642E0CDB6420EA
:1022A00096FBF0F3303302F8083096FBF0F308F1B8
:1022B000010800FB136601E00A2E06DB96FBF1F035
:1022C000303002F8080008F1010896FBF1F001FB3C
:1022D0001060303002F80800A16908F1010808EB2D
:1022E000050202EB0A00081AA0612078C00602D499
:1022F0002046FEF7DBFD216A08AE01EB0A002062F2
:1023000004E0D4E9012116F8010B9047BAF1010A63
:10231000F7D22078C00602D52046FEF7C7FD6E46EC
:1023200009E016F8010B3E280FD0D4E901219047AF
:10233000206A401C2062B8F10108F2D22046FEF764
:10234000CBFD09B00320BDE8F08F206A284420624D
:1023500003E0D4E90121302090476D1EEBD3F8E76C
:10236000ED55000002FCFFFF10B5436913B1AFF358
:10237000008001E0FEF7D3FD012010BD127800F1CE
:1023800024010A7000224A700122EDE711684FF023
:10239000FF32E9E710B5436913B1AFF3008001E004
:1023A000FEF720FE012010BD128800F12401828476
:1023B0000022C2840122EDE711684FF0FF32E9E705
:1023C0002DE9F34F4FF0000A0C4656468DB0012020
:1023D0000C9001F10C000B9062690B980121904761
:1023E000051E2DD0252D2CD0216A8847C0B16269E9
:1023F0000B9801219047216A88470028F7D162692C
:10240000411E0B98904700E0761CA1690D98884703
:10241000216A88470028F7D1E1690D988847DBE7F2
:10242000A1690D988847A842074601D1761CD3E7D9
:10243000E1690D9888477F1C02D1BAF1000F6FD077
:102440006BE162690B9800273D46394690472A2880
:1024500004D162690B98012190470125DFF8D082F1
:1024600062690B9801219047A0F130010A290AD234
:102470004745E5DC07EB870100EB4107303FDFD440
:1024800045F01005ECE7E90601D46FF000476C2831
:102490000AD04C2814D0682815D06A280DD074288A
:1024A0001CD07A281AD01DE062690B980121904750
:1024B0006C2802D045F0040514E045F002050DE05B
:1024C00045F020050AE062690B98012190476828D1
:1024D00002D045F0080505E045F4006562690B98F7
:1024E00001219047C4E9015765283DD019DC5828DF
:1024F0007AD00CDC452837D004DC252826D04128AA
:102500009ED131E046282FD0472899D12CE05B2876
:1025100077D0612828D063287CD0642823D15AE062
:10252000F6E06F2848D008DC66281DD067281BD04D
:10253000692821D06E2816D127E0702845D073284D
:1025400068D0752847D078280DD14DE0A1690D9845
:102550008847252805463FF469AFE1690D9888470B
:102560006D1C3FF46AAFD8E00D9923466A466FF0C0
:10257000010004F079FFC5E045F0400023464FF02C
:1025800000026060A80736D43EE0E8077FF447AF5A
:102590002068011D21600068290501D506701BE730
:1025A000290701D5068017E7A90703D5F117C0E968
:1025B000006111E706600FE745F0400023464FF049
:1025C00008026060A80716D41EE040F60E0125EA56
:1025D0000100606016E045F0400023464FF00A021B
:1025E0006060A80707D40FE045F040006060A807CE
:1025F00008D5234610220D996FF00100FEF710FE5A
:1026000080E007E0102223460D996FF00100FDF7EE
:1026100043FF77E04FF0000963284F46C8464B461A
:10262000CB4602D05B2806D038E0E80601D4012072
:10263000A060012732E06269D4F80CB00B98012148
:1026400090475E2807D14FF0010949466269D4F8E6
:102650000CB00B989047216939B900210A4603ABA9
:1026600043F82120491C0829FADBD8B3216949B372
:1026700008F1010862690B98012190475D28F4D1A7
:10268000B9F1000F09D0002003A951F82020D2434E
:1026900041F82020401C0828F7DB03AB2069002804
:1026A00020794FEA40701ED05B462246CDF800806C
:1026B000CDE901970D9900286FF0010020DAFEF7AF
:1026C000FFFF1FE0C11703AA00EBD1614B1121F0FE
:1026D0001F0102EB8302411A136801208840034363
:1026E0001360C7E719E00D99224600286FF001003A
:1026F000009702DAFEF7E6FE04E0FEF73CFE01E09A
:10270000FEF76AFF00280ADA401C06D10C9820B1B7
:102710004FF0FF300FB0BDE8F08F5046FAE7E90701
:1027200001D10AF1010A064400200C9054E6000091
:10273000CCCCCC0C2DE9FF4F06468BB00878FF2897
:1027400006D0491C2D2805D000244FF0000908E0D0
:1027500000200CE00124F8E709EB8903491C00EB99
:1027600043090878FF28F7D114B1C9F10000814668
:10277000107800252C46AA4629462D2801D02B2862
:1027800004D1521C2D2813D0002082468B4610788D
:10279000FF280FD04FF0000C0A21521CA5FB017836
:1027A00004FB018105FB0C11C5194BEB0104EEE79D
:1027B0000120EAE7002108464FF00000BAF1000FBF
:1027C00002D000EB80004008C0F38157012F01DDEB
:1027D0004FF0FF370E9955EA040009EB01080BD0C2
:1027E0004FF0020918F5FA7F16DA4FEACA70002F87
:1027F000706008DD012007E04FEACA70C6E900B04A
:102800000FB0BDE8F08F00203060FEF7FDFAC0F891
:1028100000901821084616E0B8F5FA7F18DD002F61
:1028200002DAF748784401E0F6487844D0E900102D
:10283000C6E9001040EACA707060FEF7E5FAC0F819
:102840000090142108460FB0BDE8F04F04F0A5BD7C
:10285000002108464FF00000B8F10001099002DAAB
:10286000C7F1000200E03A4601DAC8F1000106A80B
:1028700000F06EFE06AB93E8070003AB83E80700A9
:1028800044F23E005BEA04010090584604D144F251
:102890001E012C465D460091210C0904014306D11E
:1028A0000099240444EA15442D041039009104F0E1
:1028B0007F41014306D10099240244EA15642D02A8
:1028C0000839009104F07041014306D100992401B8
:1028D00044EA15742D01091F009104F040410143A1
:1028E00006D10099A40044EA9574AD00891E0091B8
:1028F00004F00041084304D100986D196441401E62
:1029000000904FF001033A466846B8F1000FCDE958
:10291000014503A902DD01F0F0FC01E001F0C3FC78
:10292000BAF1000F04460D4601D084F000440021A6
:1029300008464FF00000099940F2FF77484010F038
:102940000C0F07D124F00040284303D0C4F30A50F1
:10295000B84212D1FEF758FAC0F80090C4F30A50FA
:10296000B8420AD1A8487844D0E90010C6E900105E
:1029700004F000410843706042E7C6E900543FE7B5
:102980002DE9FF4F1F464FF0000A4FF0FF38454634
:1029900091B0D7E90146CDF83CA0FFF7E7F8C06851
:1029A0000168405C1090B96912986D1C8847396ABB
:1029B000814688470028F6D1B9F1FF3F0AD0002EA2
:1029C00024F4D06411DDB9F12B0F08D0B9F12D0F2B
:1029D0000BD102E0404615B013E744F48064B969B6
:1029E00012986D1C8847761E8146600504A901D5A2
:1029F0002D2000E02B20002E01F1010B0DF13008FD
:102A00008DF810003FDDB9F1690F08D0B9F1490F19
:102A100005D0B9F16E0F02D0B9F14E0F1CD13B4673
:102A200001A8009580E85002DDE912126FF0020063
:102A300004F01EFDC11CCED10EE0B96912986D1CC8
:102A4000884781461398761E44F4007405600F98F9
:102A5000401C002E0F9016DDB9F1300FEDD0B9F10A
:102A6000780F02D0B9F1580F0DD10F9801280AD173
:102A70003B46CDE90054DDE91212001F029604F036
:102A8000F5FCC11CA7D1109989453ED144F08004C2
:102A900006E01399681CAAF1010A44F40074086066
:102AA000B9696D1C1298761E884730288146F0D08F
:102AB0002BE01099894505D1200603D4761E44F0F9
:102AC000800418E0484603F066F908B3761E0DF15D
:102AD00023018B4544F4007408D2A9F130000BF8AF
:102AE000010B200607D5AAF1010003E0200602D45D
:102AF0000AF101008246A00502D51399681C0860FE
:102B0000B96912986D1C88478146002ED1DC53E0CC
:102B1000002E51DDB9F1650F02D0B9F1450F4BD14F
:102B2000A00549D5B9696D1C1298761E24F440742D
:102B30008847002E81460CDD2B2804D0B9F12D0FDB
:102B400007D144F48074B96912986D1C8847761EC9
:102B50008146E00501D52D2100E02B2108F8011B5D
:102B6000CDF8008021E0761E0DF13901884544F44E
:102B700000740CD2A9F1300010F0FF0088F80000BA
:102B800002D10099884509D908F1010806E0E0055D
:102B900001D51E4801E042F20F708246B9691298D1
:102BA0006D1C8847814613980560002E04DD484659
:102BB00003F0F1F80028D6D1F96912988847FF2070
:102BC00053468BF8000088F8000000200A900B9014
:102BD00004AA0CA90AA8FFF7ADFDA00502D46FF066
:102BE0000100F8E614F0240F12D0E0071CD1386879
:102BF000DDE90A12031D3B600068C0E9001213E022
:102C0000E0550000D255000096540000F1D8FFFFB7
:102C10000AA9684603F012F8E00705D13868009A5F
:102C2000011D3960006802602846D4E610B508E04E
:102C300030F8024B9C4204D10AB1002010BD0120A3
:102C400010BD491EF4D2104610BD70B50D460146A8
:102C50001446D36850692A46FEF7A0F8002807DA20
:102C6000411C07D0E16820F0004041F48041E16060
:102C7000281A70BD2046FEF7AFFD4FF0FF3070BD43
:102C8000C1680022026021F4805141F0400111F43A
:102C9000C06FC16001D08260704702694168891AC3
:102CA000C269891A816070472DE9F0470446C068FF
:102CB00040F48000E060010312D520F40020E060C1
:102CC000810606D4E26A61688A4200D80A46511A2F
:102CD000216040F40010E06094F82500BDE8F08722
:102CE00020F40010E060800602D52046FEF7CBFD00
:102CF000E06842F281014FF0FF390140012903D021
:102D00002046FEF769FDB6E02168002600290ADAB0
:102D1000C94340F480502160C4E902606068411CEE
:102D200061600078DAE744F2400108420CD020F4F8
:102D3000A04040F040002660E06021696068401AD1
:102D4000E169401AA06096E0216991B9C00310D4EE
:102D5000E069FDF7FFFC2061B0B1E06840F400607D
:102D600010F4407FE06002D140F48070E0602069A0
:102D70006060E068D4F814A0C1061AD5C0030ED56F
:102D80002046FEF75DFD14E004F1240020610120DF
:102D9000E061E06820F4407040F48060E6E721697B
:102DA0006068401AA16901445046FEF704F8002803
:102DB000A6DBE068C0032AD56168E06A884200D8D3
:102DC00008462169451AE069471B1BD02046D4F804
:102DD0001880FEF735FD08EB05015046C4F8188051
:102DE000FDF7E9FF00288BDBE06840F40030E0608D
:102DF000000202D5A0692844A061E1692069C91BCD
:102E000045180DE02046FEF71BFDE769F5E725694B
:102E10006168D4E90607491BE56208446560A06162
:102E2000E06820F0100010F4C06FE06002D020468F
:102E300000F05EFCE06840F48050C4E902600002EB
:102E400005D52069E06260606FF0010046E7224628
:102E500039462846FFF7F9FE411C0CD02918E162DB
:102E600058B1401E2060681C6060E06840F400308B
:102E7000E060287832E7484630E765602046FFF793
:102E8000FFFEF8E72DE9F04705460C46C86820F438
:102E9000201040F48000C860800602D50846FEF786
:102EA000F2FCE06841F282014FF0FF390140022953
:102EB00003D02046FEF790FCB5E000F42041B1F5C8
:102EC000004F0FD1C00306D56168E06A884200D880
:102ED0000846606006E02069E06260606069FDF7B6
:102EE00072FFA061A0680022EEB200280DDAE1684E
:102EF0008B050AD4C043A06041F490302260E060AA
:102F00006068411C61600670A5E0E0689046226040
:102F100040F40050E060206968BB6069FDF745FF40
:102F2000012704F12405A0B1A08910F4407F08D046
:102F3000E069FDF70FFC206118B1E06840F4006023
:102F400016E0E7612561E06820F4407040F480609D
:102F50000EE0E069FDF7FEFB00282061F1D0E0689B
:102F600040F4006010F4407FE06002D140F48070D3
:102F7000E06020696060E06825696FF0010AC105C2
:102F80001FD56168E06A884200D80846411B04D01A
:102F900022462846FEF72AFCF0BBE068010203D572
:102FA000E562C4E9015854E0691CE1626160E169CD
:102FB00040F48030491EC4E9021030462E70BDE84E
:102FC000F087010202D500F480320AE06068411CFB
:102FD00061600670E0680A2E40F48030E06006D040
:102FE0000022E16A6068814203D90B4602E00122B7
:102FF000F7E70346A7895B1B7F0503D4E7699F4278
:1030000000DDE2B1814200D80146E5620F1AC4E951
:103010000158002B09DD00E005E02246194628464C
:10302000FEF7E4FB08B14846C9E747B1A069E5628D
:103030006560C01BA061E06840F01000E060E068DF
:10304000000208D56168A069E562491B0844656013
:10305000A0615046B3E73046B1E770B5C468A50734
:1030600013D0650211D4B2F5807F09D0B2F5007F8C
:1030700006D0B2F5806F08D1012300F1240106E0EB
:103080005D1E6FF07F46B54201D3012070BD016126
:10309000C361416024F470611143C160002070BDC0
:1030A000CA68431C0FD00D4B1A420CD1D3070AD06B
:1030B00081F825004B680B6300238B6012F0C06F12
:1030C0000B6003D004E04FF0FF30704742F0007215
:1030D000034B1A40034B1A43CA6070478020080014
:1030E000BFFFDFFF001048002DE9F0410C46074606
:1030F00016461046FDF7EDFC2078611C61280AD0C9
:10310000722802D077283CD102E00125002405E096
:103110000225042402E0082448F2020511F8010BFC
:103120002B2806D0622809D011F8010C74280AD087
:103130000BE045F0030544F00204EFE745F0040519
:1031400044F00104EAE744F0100438462146FDF754
:103150000DFE411C15D00021316171604FF40071EA
:10316000F560F1617061200704D53046022200212C
:10317000FDF712FC306D40F0010030653046BDE8CF
:10318000F0810020FBE72DE9F0410D460646104C8A
:10319000206DC10704D0410804D020F00104F7E7F6
:1031A00022460EE05420FDF7D5FA07000ED0206D20
:1031B00047F001010843542120653846FDF7A7FD7B
:1031C0003A4629463046BDE8F0418DE70020D6E773
:1031D000C01D002070B50646484231EA00000FD0FD
:1031E0002A20741C00253070FEF7C0FC0346002224
:1031F00053F82500010F000109292BD957312AE086
:10320000042913D004DC012908D0022904D109E0E3
:1032100008290FD0102911D0002070BDFEF7A6FCA0
:1032200000680EE0FEF7A2FC40680AE0FEF79EFC94
:10323000806806E0FEF79AFCC06802E0FEF796FCA4
:10324000006928B120F0030050F8041C084470BD48
:103250004CA070BD3031521C082A04F8011BC9D3A0
:103260006D1C052DC3DB00202070304670BD09B1F8
:103270004B0901D00020704722B113782A2B02D0CD
:1032800000F034B8A6E7AFF300802DE9F0410F4617
:103290008046541C00250026314614F8010BA0F18D
:1032A0003002092A03D9A0F16103052B16D8392869
:1032B00001D8104600E05738491C082940EA061694
:1032C000EBD30120A840384203D0FEF74FFC40F872
:1032D00025606D1C052DDEDB207810B10020BDE8D7
:1032E000F08139464046BDE8F04173E72DE9F041F1
:1032F0000C460646154688070AD5114622487844EA
:1033000002F08AFE071EEAD0FEF730FC7F1C476001
:10331000E0070AD029461C4878441A38AFF30080E9
:10332000071EDCD0FEF722FC076060070AD529469D
:10333000154878443438AFF30080071ECFD0FEF72D
:1033400015FC876020070AD529460F4878444E3877
:1033500002F078FE071EC2D0FEF708FCC760E00648
:103360000AD52946084878446838AFF30080051E1E
:10337000B5D0FEF7FBFB056121463046BDE8F041C4
:1033800028E7ACE7430000002A4C000070B5164661
:103390000C460546FDF728FD036893F80101012856
:1033A00004D0185D68B101202C8070BDD3F80301F2
:1033B0003246214603F2031303442846BDE8704019
:1033C00018474FF0FF3070BD70B516460C460546E5
:1033D000FDF70AFD036893F80101012806D0FF2CD0
:1033E0000FD8185D68B101202C7070BDD3F80701AB
:1033F0003246214603F2071303442846BDE87040D5
:1034000018474FF0FF3070BD10B50446AFF3008091
:103410002046BDE81040FCF7FDBE002801D0FDF7B6
:10342000D9BC704710B5002102A000F07DF9012041
:1034300010BD0000534947414252543A2041626E48
:103440006F726D616C207465726D696E6174696F05
:103450006E00000010B500F081F9BDE81040FFF7E4
:10346000DCBF10B500F094F9BDE81040FFF7D5BF00
:103470002DE9F04117460E46054633B107FB0354CC
:10348000E41B2046B047A542FAD1A5F10800BDE8EB
:10349000F08110B58820FDF75DF9002801D00021EA
:1034A000017010BD802902D808B1017809B100204F
:1034B0007047012100F8081B704718B100F108029D
:1034C000914201D000207047002101707047000038
:1034D0002DE9F0411F46044603260168072A01F43E
:1034E000006004DB08B116A505E016A503E008B1ED
:1034F00015A500E015A521F010002060A069C01EF0
:10350000A0610FB1401EA0612046FDF7CFFC4FB176
:10351000D4E9012138469047206A401C2062C01C33
:10352000206206E0206AFAE7D4E9012115F8010BD0
:103530009047761EF8D22046FDF7CEFCBDE8F0811C
:103540004E414E006E616E00494E4600696E660047
:103550002DE9F047814616468AB0354878440DC8B3
:103560008DE80D0032487844801C03AC0DC884E817
:103570000D0041F69B300844372190FBF1F290FB9F
:10358000F1F5A5F1800501FB12041B3C02D5644254
:10359000012000E00020DFF898A080460027FA44D0
:1035A000AAF1BE0A0EE0E0070AD03246684607EBF1
:1035B000470101230AEB810100F08AFE8DE8070034
:1035C00064107F1C002CEED1194F7F44AE3F19E0F0
:1035D000E80715D007EB04100DF1180A90E80E006B
:1035E0008AE80E00C068F04201D19819089032466E
:1035F000012306A903A800F06BFE03AB83E80700D4
:103600006D10641C002DE3D14FF001033246694672
:10361000B8F1000F03A802D000F030FE01E000F086
:1036200057FEC9E90001C9F808200AB0BDE8F087D3
:10363000944200002DE9F0471C469246804602FB6A
:1036400001F511B3A76800203DE0002F3DDCE069E3
:10365000A8421DDAB9F1000F1AD022462946404689
:10366000FEF7C4F808B1A7602AE0E06810F4C06F64
:1036700001D0002008E022696168891AE269511AC4
:10368000C003A16001D44842A0605046BDE8F08765
:10369000A84203DAE06840F40000E060214698F8B0
:1036A0000000FFF7EFFBE16821F40001E160411C3D
:1036B00006D0A768002805DB6D1E08F1010813E09D
:1036C0000020E3E7012081460EE0AF423E4600DDE8
:1036D0002E46414632466068FCF79BFF6068BF1B80
:1036E000AD1B3044B0446060002DAEDCA760CCE779
:1036F00070B5054640F202260A4C0FE094F85000DF
:10370000C00708D0AC4206D0E06836EA000002D11B
:10371000204600F0A1FA206D20F00104002CEDD12C
:1037200070BD0000C01D002070B505460C460A2083
:1037300000E06D1C00F054F835B128780028F8D16D
:1037400002E0641C00F04CF814B120780028F8D195
:10375000BDE870400A2000F043B8000010B50146F3
:1037600002A0FFF7E1FF012010BD000053494752BE
:10377000545245443A2052656469726563743A2034
:1037800063616E2774206F70656E3A200000000040
:1037900010B5012805D0002103A0FFF7C5FF0120C7
:1037A00010BD09A1F8E7000053494752544D454D5B
:1037B0003A204F7574206F662068656170206D65D2
:1037C0006D6F7279000000003A2048656170206DCD
:1037D000656D6F727920636F7272757074656400C5
:1037E00008B569468DF800000320ABBE08BD10B5D2
:1037F000FDF70AFB006810BD10B50446FDF704FB99
:10380000046010BD2DE9FF4F1F464FF03C0987B003
:103810004FF00042DDE9141001F10108DDF858A075
:1038200002EA405003900020059083460546044676
:103830000490B969461E08988847AAF1010A0290C7
:10384000BAF1000F3BDD02982E2815D01021FDF7AC
:1038500085F800282EDB4FF0010B0599014317D0A6
:10386000B9F1000F0BDB4A46C11700F035FA0543EA
:103870000C43A9F1040905E0012004900BE008B114
:1038800045F0010501200590049820B9361D02E09D
:10389000049800B1361FB969089808F101088847F3
:1038A000BBF1000FAAF1010A0290C9D00999C1F831
:1038B0000080C5E70298702808D0502806D0F96922
:1038C00008988847BBF1000F14D04FE00020029009
:1038D0000120BBF1000F049009D0B969089808F1E4
:1038E00001088847AAF10109B9F1000F07DCF9695D
:1038F000089888476FF001000BB0BDE8F08F2B28C7
:1039000004D02D280CD14FF0FF300490B9690898ED
:1039100008F101088847A9F10109B9F1000FE6DDB6
:10392000411CE4D00A21FDF719F80028DFDB0299D9
:1039300008F1010801EB810100EB41000290B96937
:10394000089888470A21FDF709F8099AA9F10109A1
:10395000B9F1000FC2F8008001DD0028E7DAF9694B
:10396000089888470499029800FB016655EA04000C
:1039700004D004F04041090002D006E0039898E02A
:10398000A40044EA9574AD00B61E04F0004108009E
:1039900002D16D196441761E159810F0240F03D0E2
:1039A0004FF00B095C4803E04FF028096FF07D00F1
:1039B0008246564507DAAAEB06018944B9F1410F60
:1039C00001DD4FF0410901200021A9F1010200F0C1
:1039D00083F9024628400B462140084301D00121CB
:1039E00000E00021501E029143F1FF3128402140A8
:1039F000084301D0012000E000200299834651EAEB
:103A00000B014FD0002108464FF00000039900F44D
:103A1000400039B100EB80004FF4400100EBD07062
:103A200001EA60008015012802DD4FF0FF3000E060
:103A300013D0401C36D0029860B3BBF1000F0CD1FC
:103A40004A460120002100F047F928402140084360
:103A500001D0012000E00020E0B101204A46002111
:103A600000F03AF9034640190A4661412D1A8C418B
:103A700011D3B9F1400F09DD159810F0240F02D0D1
:103A8000AAF1340603E0AAF1170600E0761C00252F
:103A90004FF0004406E05B1E42F1FF3220EA0305CE
:103AA00021EA0204CAF10100B04206DA1B49039878
:103AB00008430190002000900EE0039AC4F3D32144
:103AC000E80A0A43164940EA44500A433146CDE920
:103AD0000002684602F054F9159810F0240F0BD03C
:103AE0001598C00715D13868DDE90012031D3B6049
:103AF0000068C0E900120CE002A8694602F09EF8D6
:103B00001598C00705D13868029A011D3960006810
:103B100002604046F0E6000002FCFFFF0000F07F7C
:103B20000000F03F2DE9FF4F92461D4685B04FF053
:103B30000041DDE9124BDDE914727F1E01EA4B50B2
:103B4000414940F0FF4940EA0108002122F02000ED
:103B50004928049102D04E2828D04CE03BA00126F1
:103B600007C88DE80700A9690698641C88477F1E6E
:103B7000014606D41DF8060018B121F0200181424B
:103B80000BD0E96906988847032E34D0082E32D02E
:103B90006FF0010009B0BDE8F08F761C032E01D054
:103BA000082EE0D1601CCAF80000DCE7A96906987D
:103BB000641C88477F1E2AD420F02000412826D18B
:103BC000A9690698641C88477F1E20D420F0200035
:103BD0004E281CD1A9690698641C88477F1E48F4AA
:103BE000002849F48009CAF8004001D4282806D0EA
:103BF000E969069888475FEACB7012D022E0A9698C
:103C00000698641C88477F1E01D4002803DAE969FE
:103C100006988847BCE72928F1D1641CCAF80040FF
:103C2000E9E71BF0240F07D028680499031D2B60D7
:103C30000068C0E9001805E02868021D2A600068D5
:103C4000C0F800902046A5E70000F07F494E4649A5
:103C50004E4954590000000070B50446C068810701
:103C600013D0800601D5A56A04E0A1696068084404
:103C70002169451A2046FDF7E3FD00220646294644
:103C80002046FCF789FE304670BD002070BD70B53F
:103C900010B1BDE87040DFE70025074C6E1E07E05D
:103CA0002046FFF7D9FF00B13546206D20F0010412
:103CB000002CF5D1284670BDC01D00202DE9F04133
:103CC00016461F460C46851B02E02846B847AD1B2A
:103CD000641EFAD2BDE8F081B2F120030AD5C2F128
:103CE000200301FA02F120FA03F300FA02F041EA9C
:103CF0000301704700FA03F14FF0000070475FEADC
:103D0000400C08BF91F0000F4FEA8C234FEAC1220C
:103D100043EA51514FEA1C5018BF00F5F0404FEAFA
:103D2000300018BF41F000415FEA6C5C00F0298070
:103D3000BCF1FF3F08BF40F080407047130C06BF46
:103D400012044FF0100C4FF0000C130E04BF1202BF
:103D50000CF1080C130F04BF12010CF1040C930FAB
:103D600004BF92000CF1020CD30F04BF52000CF1FF
:103D7000010C11464FF00002A0F11F00A0EB0C0057
:103D8000704711F0004F08BF704731F000413FF419
:103D9000D5AF0B0C06BF09044FF0100C4FF0000C10
:103DA0000B0E04BF09020CF1080C0B0F04BF090134
:103DB0000CF1040C8B0F04BF89000CF1020CCB0F2B
:103DC00004BF49000CF1010CCCF12003A0EB0C0066
:103DD00022FA03F302FA0CF241EA030100F10100B6
:103DE000704720F07F4C80EA030023F07F47ACEB64
:103DF000070303F57C5300F0004003F1FF032DE9B6
:103E000080494FEA154B09B44FEA144325EA0B4E9B
:103E100024EA03480FF2042606EB132749083E78EC
:103E20005FEA320203FB0667C7F5000707FB06F6E9
:103E30004FEA54374FEAD64606F1020607FB066CF6
:103E4000CCF1005C4FEA1C472CEA074C07FB06F458
:103E50000CFB06F504EB15464FEA961634BF00201E
:103E60004FF000404FEAD13706FB07FC4FEA1C4CED
:103E70000CFB0BF7D21B03FB0CF761EB07010CFBF0
:103E80000EF7B0EB074072EB17420CFB08F734BF9C
:103E9000A2EB0742B2EB074261EB17414FEA0C4439
:103EA0004FEA910706FB07FC4FEA1C4C0CFB0BF793
:103EB000B0EBC74072EB573203FB0CF734BFA2EBF9
:103EC000C742B2EBC74261EB57310CFB0EF7B0EBC8
:103ED000C70072EB57720CFB08F734BFA2EBC702A6
:103EE000B2EBC70261EB5771039F4FEA816141EA70
:103EF000921104EBCC044FEAD1374FEA826206FB01
:103F000007FC42EA90124FEA80604FEA1C4C0CFB1F
:103F10000BF7D21B03FB0CF761EB07010CFB0EF751
:103F2000B0EB074072EB17420CFB08F734BFA2EB73
:103F30000742B2EB074261EB17414FEA8C554FEA5B
:103F4000910704EB9C2406FB07FC4FEA1C4C0CFB7E
:103F50000BF7B0EBC74072EB573203FB0CF734BFE3
:103F6000A2EBC742B2EBC74261EB57310CFB0EF735
:103F7000B0EBC70072EB57720CFB08F734BFA2EB33
:103F8000C702B2EBC70261EB577115EB4C254FEA44
:103F9000816141EA92114FEA82624FEAD13742EAE7
:103FA000901206FB07FC44F100044FEA80604FEAE0
:103FB0001C4C0CFB0BF7D21B03FB0CF761EB07014E
:103FC0000CFB0EF7B0EB074072EB17420CFB08F747
:103FD00034BFA2EB0742B2EB074261EB174115EB8E
:103FE0001C154FEA813141EA92414FEA823242EA9E
:103FF00090424FEA80304FEA0C7644F1000448EAE0
:1040000003434EEA0B484FF0000EB2EB080C71EB85
:10401000030724BF624639464EEB0E0E4FF0000BED
:104020000018524149414BEB0B0BB2EB080C71EB02
:1040300003077BF1000B24BF624639464EEB0E0EA0
:104040004FF0000B0018524149414BEB0B0BB2EB08
:10405000080C71EB03077BF1000B24BF6246394665
:104060004EEB0E0E51EA020718BF46F0010616EBA2
:104070000E7655F1000254F1000103D5BDE8890127
:10408000BDE80088BDE88901BDE80048B619524185
:1040900041EB0101A3F10103704780807F7E7D7CAD
:1040A0007B7A7978777676757473727171706F6ECA
:1040B0006E6D6C6C6B6A6A69686867666665646475
:1040C000636362616160605F5F5E5E5D5D5C5C5BFF
:1040D0005B5A5A595958585757565655555554546E
:1040E000535352525251515050504F4F4F4E4E4DCC
:1040F0004D4D4C4C4C4B4B4B4A4A4A494949484818
:104100004847474747464646454545444444444357
:1041100043434342424242414141000046EA06468F
:10412000A3F570534FEA164646EA42564FEAD222AA
:1041300042EA415210B54FEAD121A3F1010300F048
:104140002FF820F0004000F1020C00F0004701EBD6
:1041500000501146BCF5006F40EA070000D210BDC8
:10416000BAF1000F0AD01CB503B44FF004004FF0B1
:1041700004014FF000000FBCBDE810404FF00001FB
:10418000BBF1010FB9BF04484FF0FF3103480021D4
:1041900040EA070010BD00BFFFFFEF7F0000F07F87
:1041A000002B9C4630D477002BD01CB54FEA370744
:1041B00003B44FF010004FF01001BAF1000F06D019
:1041C000BCF1000FDCBF40F0080040F008014FF0E8
:1041D00000000FBCBDE810400BF1010BBBF1010F5B
:1041E00008BF5FEA170722BF12F1010211F10101B6
:1041F0004FF0004143F1000300F0004043EA0000AB
:104200007047F9D35708D0E746EA064613F1400F46
:104210004FEA16461FDD13F1200FDFBF16430A4693
:10422000002120335B42BED0C3F1200746EA064698
:1042300002FA07F74FEA164646EA0706C3F12007D7
:1042400022FA03F201FA07F721FA03F14FF0000313
:1042500042EA0702A7E746EA020646EA06464FEAAE
:10426000164646EA0106BCBF46EA0646360C4FF043
:1042700000034FF000024FF0000194E72DE9804C5D
:104280009A46934670B491E8380007C831EA400C6A
:1042900048BF34EA430C03D5FFF7A3FDFFF780FFC7
:1042A000F0BCBDE8008C2DE9804C9A46934670B472
:1042B00091E8380007C831EA400C48BF34EA430CA3
:1042C00003D5FFF78EFDFFF729FFF0BCBDE8008C9A
:1042D0002DE9804C9A46934670B491E8380007C89F
:1042E00010F0804F08BF13F0804F03D100F01AF890
:1042F000FFF756FFF0BCBDE8008C2DE9804C9A46D4
:10430000934670B491E8380007C810F0804F08BF9A
:1043100013F0804F03D100F005F8FFF7FFFEF0BC6B
:10432000BDE8008C20F07F4780EA030023F07F4C3B
:1043300007EB0C03A3F57C5300F00040A3F1FE0350
:1043400092F0000F00F0B38095F0000F00F077803E
:104350002DE901494FEA11404FEA144621EA00488D
:1043600000FB06FC24EA064708FB06F607FB08F8F4
:1043700000FB07F718EB06484CEB164C4FEA124BC4
:1043800018EB07484FEA15464CEB174022EA0B4E54
:104390000BFB06FC25EA06470EFB06F607FB0EFEA6
:1043A0000BFB07F71EEB064E4CEB164C4FF00006CE
:1043B0001EEB074E4CEB174B18EB0B0840F10000BF
:1043C00018EB0E0B58EB000840F100008F1A4FF06D
:1043D00000013CBFC943661B14BFB5EB040C0021B0
:1043E0003CBFC943F61B4FEA17444EEA8E0E27EA3C
:1043F00004454FEA1C4704FB07622CEA074C05FB07
:1044000007F70CFB05F604FB0CFC16EB074642EB2A
:10441000174216EB0C4642EB1C421BEB060658EB10
:104420000202414146EA9E0601D5BDE80189B6195E
:10443000524141EB0101A3F10103BDE801894FEABB
:1044400014454FEA114724EA054621EA074C05FBCB
:1044500007F406FB07F70CFB06F105FB0CFC11EB60
:10446000074144EB17444FEA124711EB0C4144EB70
:104470001C4422EA074C05FB07F206FB07F70CFB7E
:1044800006F605FB0CFC16EB074642EB174216EB53
:104490000C4642EB1C456A1854F1000148BF7047B6
:1044A000B619524141EB0101A3F10103704795F0A8
:1044B000000F37D04FEA11424FEA144721EA024673
:1044C00024EA074C02FB07F106FB07F70CFB06F496
:1044D00002FB0CFC14EB074441EB17414FEA154774
:1044E00014EB0C4441EB1C4125EA074C02FB07F599
:1044F00006FB07F70CFB06F602FB0CFC16EB074667
:1045000045EB174516EB0C4645EB1C42121951F1D1
:10451000000148BF7047B619524141EB0101A3F1B8
:10452000010370474FEA14454FEA114724EA054654
:1045300021EA074C05FB07F106FB07F70CFB06F227
:104540004FF0000605FB0CFC12EB074241EB174154
:1045500012EB0C4251EB1C4148BF7047921841EBE3
:104560000101A3F10103704738B504466846AFF373
:1045700000800146204602F095F838BD30B5204C49
:10458000E46804F00204022C01D11E4800E01D483A
:104590001B4CE46804F0010404B140080146184CC7
:1045A000E46804F00404042C05D1154C6468C4F3D9
:1045B0000324631C5943124CE468C4F3012424B15E
:1045C000012C06D0022C13D10DE00E4C0E4D2C60A8
:1045D00013E00B4CE468C4F30314641CB1FBF4F265
:1045E000094C226009E04FF40044074D2C6004E0C0
:1045F00049F64044044D2C6000BF00BF30BD0000B0
:104600000000024000127A000400002000B50D48AE
:104610000D49C8610846C0680020C8600846406867
:1046200000204860084680680020886008460069CD
:10463000002008610846406900204861FFF79EFF9E
:1046400000BD000010000008000002401FB51C461D
:1046500000F05EFA0449496804B0204610BDAFF38B
:104660000080AFF30080F7E76000002013B500245E
:10467000012001F03BFA0446204601F02FFA4FF0EA
:10468000FF301CBDAFF30080AFF30080F4E72DE9ED
:10469000F0411F4690460D00064601D00C4600E052
:1046A00040241EB9204601F01DFA06463B4642460C
:1046B0002146FCF7AFF8002802DA0020307010E045
:1046C000844202DA00F1010402E00AD14FEA440414
:1046D0001DB14FF00000BDE8F081304601F0FAF95D
:1046E000E0E73046F7E700002DE9FF4F484D00278F
:1046F00089B028689B469246002857D145A00020E3
:1047000000BF040001D105F10C0420463A21FCF75A
:1047100056FA68B13E4A00F8017B121D40A1FCF731
:10472000FFF8012802D16868002801DC01206860D8
:104730003C4914208946084600BF06001BD04FF4B0
:104740000070C6E901073848F760306006F11008CC
:1047500007A8AFF300800246344904A801F086FFA1
:104760000146404601F0A6FFA0F1100604A801F0A2
:10477000C0FF2F4830602B4E06A8AFF300800246E2
:104780002146684601F072FF074601A800F016FFB7
:10479000024630683946C36830469847A86001A889
:1047A00000F01CFF684601F0A4FF2C60AC68601CA0
:1047B00026D06F680DF108081A4E554605A8AFF3CC
:1047C0000080024615A103A801F050FFCDE900507A
:1047D00030683B462246056931464046A84703A853
:1047E00001F087FF029A52F8040C60B1DDE909017B
:1047F0005B46FFF74CFF044602A801F07AFF204613
:104800000DB0BDE8F08F02A801F073FF0020F7E7BC
:1048100014000020525753544445525200000000E7
:1048200025640000A81D0020147800086A7B000899
:10483000187B00080FB47FB5144D2A68002A04D0F5
:104840000898032804DC002190477FBC5DF814FB26
:1048500009AE69460820084600BF18B100F0AAFC5E
:10486000044600E0002432462046089900F060FC2F
:10487000206881682046884701462A680898904742
:104880002068016820468847DFE700005C000020C0
:104890000749884201D1042070470649884202D066
:1048A0000549884201D1082070470C20704700005C
:1048B000C01D0020141E0020681E002010B50446F4
:1048C0000068FCF769F810B14FF0FF3010BD2068A8
:1048D000BDE81040FCF7DCB870B51C4615460E4626
:1048E0000368224629463046FEF7A4FEA04201D1C5
:1048F000012070BD002070BD13B5002401F0F6F852
:10490000044614B90320FFF795FF20461CBDAFF302
:104910000080AFF30080F4E701F0E0B870470000DA
:104920002DE9FC4707464FF00008C7F800809A467B
:10493000894600F10805C0F804801400464608D0F6
:10494000B4F1804F01D3AFF30080A00001F0CAF8AA
:1049500000E00020C5E9000403E02868641E40F878
:104960002460002CF9D1A5F10804C5F80880C5F829
:104970000C80C4E9068AB9F100000AD0FCF72AF9D4
:10498000401C054601F0AEF82A464946FDF747F8B7
:10499000A061062701A8AFF300800146684601F038
:1049A00081FE82463946174B174A042001F017F959
:1049B00065688046062D00D33D46C146266806E060
:1049C0003146484601F0C2FE09F10409361D20684F
:1049D00000EB8500B042F3D105E008EB85005146BD
:1049E0006D1C01F0B3FEBD42F7D306492068FCF709
:1049F000B6F9C4E90087684601F07BFE2046BDE8B1
:104A0000FC870000F36600086945000810B50446FD
:104A1000806901F05FF804F1080001F0D0FB08386C
:104A200001F0DCFB10BD2DE9F04104460D461646B1
:104A3000104600212260FCF7E3FF606048B1FCF7FC
:104A4000C9F8401C01F04EF807466168FCF793F87E
:104A5000676029463046FCF7D3FF2046BDE8F08169
:104A600010B54168044629B12068FCF7C9FF6068A9
:104A700001F030F8204610BD0C0008D00A460DA108
:104A80001048FBF7BDFE204601F024F809E050B1C4
:104A900001280AD002280AD00BA206A10948FBF778
:104AA000AFFEFCF73CF80AA2F7E70CA2F5E711A26B
:104AB000F3E70000457863657074696F6E3A2025EE
:104AC000732E0A00681E0020756E6B6E6F776E2065
:104AD000657863657074696F6E000000756E657847
:104AE00070656374656420657863657074696F6E62
:104AF000000000006261645F616C6C6F633A206F5C
:104B00007574206F66206D656D6F7279000000000E
:104B100010B50A4904460020D1E9003200E0401CEB
:104B2000824204D953F8201009B1A142F7D153F8B9
:104B30002010002900D1104610BD000060000020A8
:104B40000068002800D001207047406870472DE9B8
:104B5000FC410D46174601684FF0FF3406226846B7
:104B6000FFF761FF21462868FFF780FD0646401CDD
:104B700012D000F091FF0546D5E9004104EBC100D9
:104B8000A0420FD12846491C01F032FBD5E90001B3
:104B900000EBC104083C0AE06846FFF761FF2046CD
:104BA000BDE8FC812268521C01D00834E8E7394690
:104BB000201D266000F022FD2868201AC410EBE7B3
:104BC00010B50C4600F068FF4168A14204DD0068A2
:104BD00000EBC400001D10BDBDE8104000F0B6BCE5
:104BE000F8B51C4615460E4600F056FF4168B14226
:104BF0000EDD006850F83600411C09D000210091FC
:104C00006B4622462946FFF721FD6946884200D1BE
:104C10000020F8BD406930F81200084000D00120A3
:104C200070470846704708467047F8B5046805465F
:104C30000868E768069E874203D9A46854F82000F4
:104C400000E00020002803D12846009600F002F87A
:104C5000F8BD00002DE9F84F0646006889461D465C
:104C60004169DDF828B09246294201D0002406E0CF
:104C700000693749284201D0CC6800E08C684FF0C9
:104C8000000884B1D9F80070E068B84207D86A46D5
:104C9000791C04F10800CDF8008001F065FAA068E5
:104CA00050F82770F7BBBAF1000F02D10420FFF7CC
:104CB000C1FD84B1D9F80070E068B84207D86A46EF
:104CC000791C04F10800CDF8008001F04DFAA068CD
:104CD00050F8277037BB326800231EA15069284264
:104CE0000ED00223102100200D4203D0116851F88C
:104CF000201009E04900401C0628F5D3164903E0BE
:104D00001069284200D00123184600225B469847CC
:104D100007463CB13068A04212D02146684600F0F8
:104D200037FC00E00CE04A463946684600F016F8C9
:104D3000CDF80080E069401EE061684600F04EFC5E
:104D40004A463946304600F009F83846BDE8F88F43
:104D50004000002000000000677B0008F8B5064610
:104D6000087A15460C46C0070FD1286820B91749A4
:104D70000868401C08602860206831468268204628
:104D80009047A06840F00100A06030682D68C068BE
:104D9000A84207D80020009030686A46691C083095
:104DA00001F0E2F93068806850F8250030B1C16840
:104DB000491EC16002D1016849688847E068401C0B
:104DC000E0603068806840F82540F8BD6800002049
:104DD0007CB5054608680C46806948B16846AFF363
:104DE0000080024620688169284601F03FFC7CBDB6
:104DF00001A8AFF30080024600A1F5E72A000000F9
:104E00000120704710B50168C969884710BD0120AD
:104E100070472DE9FF410DF1280898E8F0008DE872
:104E2000F0000468E468A04704B0BDE8F081DDE963
:104E30000010039B0A6018600320704710B50168DA
:104E40008969884710BD0120704710B501688969DC
:104E5000884710BD002070472DE9FF410DF128085B
:104E600098E8F0008DE8F0000468E468A04704B01A
:104E7000BDE8F08130B5DDE90314DDE905500A60D5
:104E8000046007E0127822700A68921C0A600268C7
:104E9000521C02600A689A4202D00468AC42F1D106
:104EA000002030BD10B50168C969884710BD006891
:104EB0000968884201D1012070470020704710B571
:104EC0000446FBF7A6FB204610BD10B50446FBF7D1
:104ED000E5FB204610BD38B504464FF0FF3000908A
:104EE00021466846FFF7E3FF08B1002038BD20687F
:104EF00038BD00680968884201D101207047002050
:104F0000704710B50446FBF784FE204610BD38B547
:104F100004464FF0FF30009021466846FFF7E9FF56
:104F200008B1002038BD206838BD00007CB50446BB
:104F30002DA1FCF77DFDE8B32CA12046FCF778FD00
:104F4000C0B34FF4007000F0CDFD054602222146AB
:104F50006846FFF768FD0024FBF746FF06464FF45E
:104F6000807330680021005D10F0010F00D0012136
:104F700010F03E0F01D041F0020110F0400F01D0BF
:104F800041F0040110F0100F01D041F0080110F0C1
:104F9000080F01D041F0100110F0980F01D041F03E
:104FA000200120281DD000220AB141F0400110F05C
:104FB000020F00E013E001D041F0800180EA8000A0
:104FC00010F0800F01D041F4807125F81410641C9A
:104FD0009C42C6D16846FFF743FD28467CBD054884
:104FE0007CBD0122E0E7000043000000504F534920
:104FF00058000000147500082DE9FC4106461546CE
:105000000C460846FFF792FF01462B460022304629
:1050100000F086F93E490160064640693D498842F4
:1050200073D001203076022221466846FFF7FBFC50
:105030000024FF25E2B210213046FFF7EBFD38B91E
:1050400009E0EAB210213046FFF7E4FD30B96D1EE9
:10505000A542F6D802E0641CAC42EBD3C6E9074592
:10506000F76A18E0A4F16100192810D8E2B2102103
:105070003046FFF7CFFD50B1A4F1200808F0FF0241
:1050800008213046FFF7C6FD08B1404600E0204643
:1050900007F8010B641CAC42E4D90024FF25E2B2FE
:1050A00008213046FFF7B6FD38B909E0EAB2082119
:1050B0003046FFF7AFFD30B96D1EA542F6D802E0CD
:1050C000641CAC42EBD3C6E90945376B18E0A4F188
:1050D0004100192810D8E2B208213046FFF79AFDA6
:1050E00050B104F1200808F0FF0210213046FFF70C
:1050F00091FD08B1404600E0204607F8010B641C12
:10510000AC42E4D96846FFF7ABFC3046BDE8FC8111
:10511000887800081475000810B500F004F8BDE8A0
:10512000104000F0DBBC10B500F08EF910BD00009F
:10513000F7B51746002413460D4606460A46214693
:105140002046FFF7D1FA04000DD1002D01DB172D09
:1051500000D30025164800213B4650F8252008467C
:10516000FFF795FA04467068B8B1FBF733FD0546C2
:105170002046FBF72FFD2844401C00F0B3FC71686B
:10518000FBF7F9FC2146FBF747FD0546706800F088
:10519000A1FC204600F09EFC2C4674603046FEBD0B
:1051A000AFF30080204600F095FCAFF30080F5E7F8
:1051B000B874000810B500F069FC024901600021D4
:1051C000416010BD9C79000810B504460448206079
:1051D000606800F07FFC2046AFF3008010BD000047
:1051E0009C79000810B501F084FA10BD10B5044692
:1051F0004FF0FF30206000F0A9F90146201D00F0BB
:10520000D7F9001F10BD10B5001D00F0E7F9001F11
:1052100010BD10B5044601C92060201D00F0EEF954
:10522000204610BD2DE9FE43064602A8FFF7D0FD3B
:10523000022268460299FFF7F6FB02A801F059FA2C
:105240000024FF25E2B210213046FFF7E3FC38B915
:1052500009E0EAB210213046FFF7DCFC30B96D1EE0
:10526000A542F6D802E0641CAC42EBD3C6E9074580
:10527000F76A18E0A4F16100192810D8E2B21021F1
:105280003046FFF7C7FC50B1A4F1200808F0FF0238
:1052900008213046FFF7BEFC08B1404600E020463A
:1052A00007F8010B641CAC42E4D90024FF25E2B2EC
:1052B00008213046FFF7AEFC38B909E0EAB2082110
:1052C0003046FFF7A7FC30B96D1EA542F6D802E0C4
:1052D000641CAC42EBD3C6E90945376B18E0A4F176
:1052E0004100192810D8E2B208213046FFF792FC9D
:1052F00050B104F1200808F0FF0210213046FFF7FA
:1053000089FC08B1404600E0204607F8010B641C08
:10531000AC42E4D96846FFF7A3FBBDE8FE8300007A
:105320002DE9F0410646202070600020C6E9020306
:105330003F4B33607161327611B93E49716130760D
:105340000024FF25E2B210213046FFF763FC38B994
:1053500009E0EAB210213046FFF75CFC30B96D1E5F
:10536000A542F6D802E0641CAC42EBD3281BC6E988
:105370000745401C00F0B6FB0746F06218E0A4F1B8
:105380006100192810D8E2B210213046FFF742FC24
:1053900050B1A4F1200808F0FF0208213046FFF7C1
:1053A00039FC08B1404600E0204607F8010B641CB8
:1053B000AC42E4D90024FF25E2B208213046FFF7D1
:1053C00029FC38B909E0EAB208213046FFF722FC8F
:1053D00030B96D1EA542F6D802E0641CAC42EBD396
:1053E000281BC6E90945401C00F07CFB07463063DA
:1053F00018E0A4F14100192810D8E2B20821304683
:10540000FFF708FC50B104F1200808F0FF0210215A
:105410003046FFF7FFFB08B1404600E0204607F8A2
:10542000010B641CAC42E4D93046BDE8F0810000B9
:10543000307A00081475000810B500F005F8BDE8D2
:10544000104000F04BBB000010B504460848206037
:10545000207E10B1606900F03DFBE06A00F03AFB8D
:10546000206B00F037FB2046AFF3008010BD00003A
:10547000307A000810B5202200F014F800220274DF
:105480000149016010BD0000647A000810B500F009
:1054900004F8BDE8104000F021BB10B5AFF3008068
:1054A00010BD000042600022C0E9022101490160F4
:1054B000704700001478000810B5AFF30080BDE815
:1054C000104000F00BBB000070B51D4E3069002885
:1054D00027D1202000F00AFB044602230A2219A14A
:1054E000FFF71EFA00241025B06008E0B1680868D4
:1054F000896900EB840001F003F96D00641C15F468
:105500007C7FF3D1202000F0F1FA044601230A2227
:105510000DA1FFF705FA4FF47C71F0600161B068EE
:10552000306170BDAFF30080B06818B1FFF76EFA5C
:1055300000F0D4FA00203061B060AFF3008070BD9D
:1055400040000020430000000000000010B50D4C9A
:10555000206908B9FFF7B8FF2078C0070FD10948C4
:1055600000F047FB58B10748A168001D00F010F893
:10557000054A0649FBF736F80248AFF300800148B8
:10558000001D10BD4000002000000008DD5500088F
:1055900010B5044601600548006908B9FFF794FF9B
:1055A0002168C869401CC861204610BD4000002029
:1055B00009680160CA69521CCA61704770B5064C1F
:1055C0000546206808B9FFF77FFF21682960C86990
:1055D000401CC861284670BD5000002010B504462C
:1055E000006848B1C169491EC16105D1206818B180
:1055F000FFF70CFA00F072FA204610BD70B50D46A8
:1056000004460168286881420FD0C169491CC16104
:105610002068C169491EC16105D1206818B1FFF732
:10562000F5F900F05BFA28682060204670BD0000A4
:1056300010B52022FFF736FF0149016010BD0000C0
:10564000A87A000810B500F004F8BDE8104000F09A
:1056500045BA10B5AFF3008010BD000010B5202290
:10566000FFF720FF0149016010BD0000D87A000853
:1056700010B500F004F8BDE8104000F02FBA10B5E6
:10568000AFF3008010BD00002DE9F05FB6498346FE
:105690000868401C0860012802D05846BDE8F09F09
:1056A000B24C50202146084600BF050006D04FF4FA
:1056B0000073A4F50072AE4901F0F8F9AB49482037
:1056C00058318846084600BF07004FF0000919D03E
:1056D000A84DA64E2968016007F1080001F0B6FC4C
:1056E000A0F10804286820606A6850F80C3C314634
:1056F000E250C4F80490206850F80C2C101901F006
:1057000077FC00E000249C4D50202946084600BF4D
:10571000060006D04FF40073A5F50072974901F01A
:10572000C5F9954D442058352946084600BF060066
:1057300003D0914900F048FE0646914D502029467D
:10574000084600BF070006D04FF40073A5F50072AD
:105750008C4901F0ABF98A49442058310D4608467E
:1057600000BF070004D0864900F02EFE054600E089
:105770000025854950200F46084600BF5FEA000813
:1057800006D07F4A4FF40073A0327E4901F08EF9B3
:105790007D49442058310F46084600BFB0F100084B
:1057A00002D0774900F010FE24B1216851F80C1C9A
:1057B000214400E00021754A116026B1316851F89A
:1057C0000C1C314400E00021516025B1296851F8DA
:1057D0000C1C294400E00021916018B1016851F8C7
:1057E0000C1C0844D0602068904650F80C0C2044F3
:1057F000674C8663286850F80C0C2844416841F4D3
:105800000051416021465020084600BF050006D0E7
:105810004FF40073A4F58062554901F017FB5C4911
:10582000482058318A46084600BF070019D0594D14
:10583000574E2968016007F1080001F03DFCA0F116
:105840000804286820606A6850F80C3C3146E25031
:10585000C4F80490206850F80C2C101901F0FEFBDD
:1058600000E000244C4D50202946084600BF0600A9
:1058700006D04FF40073A5F58062404901F0E6FAC6
:10588000454D442058352946084600BF060003D040
:10589000414901F015FB0646404D50202946084677
:1058A00000BF070006D04FF40073A5F580623549AC
:1058B00001F0CCFA394D442058352946084600BF3E
:1058C000070004D0354901F0FBFA054600E0002549
:1058D0002E495020A0390F46084600BF5FEA000954
:1058E00006D02E4A4FF40073A032264901F0AEFADA
:1058F0002649442048390F46084600BFB0F1000948
:1059000002D0264901F0DCFA24B1216851F80C1CC0
:10591000214400E000214246C8F8101026B1316849
:1059200051F80C1C314400E00021516125B1296877
:1059300051F80C1C294400E00021916118B1016864
:1059400051F80C1C0844C8F81C00206850F80C0CD6
:1059500020448663286850F80C0C2844416841F4C0
:105960000051416099E60000080000207802002004
:10597000C01D00202078000820050020141E0020F3
:10598000C0070020681E0020600A0020881D00203B
:10599000000F002034790008A813002048180020C8
:1059A00010B5224904460868401E08603BD12048D3
:1059B0000022016851F80C1C08441146406B01F0AC
:1059C000C8FA1C480022016851F80C1C0844114612
:1059D000406B01F0BEFA18480022016851F80C1C17
:1059E00008441146406B01F0B4FA144800220168E3
:1059F00051F80C1C08441146406B01F0DDFA1048C8
:105A00000022016851F80C1C08441146406B01F05B
:105A1000D3FA0C480022016851F80C1C08441146C6
:105A2000406B01F0C9FA204610BD000008000020BC
:105A30007805002018080020B80A00200014002073
:105A4000A0180020401D002010B5074940F8181B81
:105A5000FFF7B4FD002141608160C16001614161D7
:105A60008161183810BD0000087B000810B500F0F7
:105A700004F8BDE8104000F031B810B51030FFF761
:105A8000B1FB1038AFF3008010BD00000149016088
:105A900070470000587B00080A4810B50078C0071E
:105AA0000ED1084800F0A5F850B107480021074A78
:105AB000016041600649FAF795FD0248AFF30080A6
:105AC000014810BD6C00002070000020000000089C
:105AD0007962000810B500F001F810BD10B5FAF7B2
